{
  "_format": "hh-sol-artifact-1",
  "contractName": "SecureVault",
  "sourceName": "contracts/SecureVault.sol",
  "abi": [
    {
      "inputs": [
        {
          "internalType": "address",
          "name": "_authManager",
          "type": "address"
        }
      ],
      "stateMutability": "nonpayable",
      "type": "constructor"
    },
    {
      "inputs": [],
      "name": "ReentrancyGuardReentrantCall",
      "type": "error"
    },
    {
      "anonymous": false,
      "inputs": [
        {
          "indexed": true,
          "internalType": "address",
          "name": "sender",
          "type": "address"
        },
        {
          "indexed": false,
          "internalType": "uint256",
          "name": "amount",
          "type": "uint256"
        }
      ],
      "name": "Deposit",
      "type": "event"
    },
    {
      "anonymous": false,
      "inputs": [
        {
          "indexed": true,
          "internalType": "address",
          "name": "recipient",
          "type": "address"
        },
        {
          "indexed": false,
          "internalType": "uint256",
          "name": "amount",
          "type": "uint256"
        },
        {
          "indexed": true,
          "internalType": "bytes32",
          "name": "nonce",
          "type": "bytes32"
        }
      ],
      "name": "Withdrawal",
      "type": "event"
    },
    {
      "inputs": [],
      "name": "authManager",
      "outputs": [
        {
          "internalType": "contract AuthorizationManager",
          "name": "",
          "type": "address"
        }
      ],
      "stateMutability": "view",
      "type": "function"
    },
    {
      "inputs": [
        {
          "internalType": "address",
          "name": "recipient",
          "type": "address"
        },
        {
          "internalType": "uint256",
          "name": "amount",
          "type": "uint256"
        },
        {
          "internalType": "bytes32",
          "name": "nonce",
          "type": "bytes32"
        },
        {
          "internalType": "uint256",
          "name": "deadline",
          "type": "uint256"
        },
        {
          "internalType": "bytes",
          "name": "signature",
          "type": "bytes"
        }
      ],
      "name": "withdraw",
      "outputs": [],
      "stateMutability": "nonpayable",
      "type": "function"
    },
    {
      "stateMutability": "payable",
      "type": "receive"
    }
  ],
  "bytecode": "0x60a060405234801561001057600080fd5b5060405162000be938038062000be983398181016040528101906100349190610148565b6001600081905550600073ffffffffffffffffffffffffffffffffffffffff168173ffffffffffffffffffffffffffffffffffffffff16036100ab576040517f08c379a00000000000000000000000000000000000000000000000000000000081526004016100a2906101d2565b60405180910390fd5b8073ffffffffffffffffffffffffffffffffffffffff1660808173ffffffffffffffffffffffffffffffffffffffff1681525050506101f2565b600080fd5b600073ffffffffffffffffffffffffffffffffffffffff82169050919050565b6000610115826100ea565b9050919050565b6101258161010a565b811461013057600080fd5b50565b6000815190506101428161011c565b92915050565b60006020828403121561015e5761015d6100e5565b5b600061016c84828501610133565b91505092915050565b600082825260208201905092915050565b7f496e76616c69642061757468206d616e61676572000000000000000000000000600082015250565b60006101bc601483610175565b91506101c782610186565b602082019050919050565b600060208201905081810360008301526101eb816101af565b9050919050565b6080516109d5620002146000396000818160dd015261019101526109d56000f3fe60806040526004361061002d5760003560e01c8063920811b214610087578063d5531ef3146100b257610082565b36610082573373ffffffffffffffffffffffffffffffffffffffff167fe1fffcc4923d04b559f4d29a8bfc6cda04eb5b0d3c460751c2402c5c5cc9109c3460405161007891906103ef565b60405180910390a2005b600080fd5b34801561009357600080fd5b5061009c6100db565b6040516100a99190610489565b60405180910390f35b3480156100be57600080fd5b506100d960048036038101906100d491906105b3565b6100ff565b005b7f000000000000000000000000000000000000000000000000000000000000000081565b610107610386565b6000851161014a576040517f08c379a0000000000000000000000000000000000000000000000000000000008152600401610141906106aa565b60405180910390fd5b8447101561018d576040517f08c379a000000000000000000000000000000000000000000000000000000000815260040161018490610716565b60405180910390fd5b60007f000000000000000000000000000000000000000000000000000000000000000073ffffffffffffffffffffffffffffffffffffffff1663707c2f8d308989898989896040518863ffffffff1660e01b81526004016101f497969594939291906107b2565b6020604051808303816000875af1158015610213573d6000803e3d6000fd5b505050506040513d601f19601f820116820180604052508101906102379190610854565b905080610279576040517f08c379a0000000000000000000000000000000000000000000000000000000008152600401610270906108cd565b60405180910390fd5b60008773ffffffffffffffffffffffffffffffffffffffff168760405161029f9061091e565b60006040518083038185875af1925050503d80600081146102dc576040519150601f19603f3d011682016040523d82523d6000602084013e6102e1565b606091505b5050905080610325576040517f08c379a000000000000000000000000000000000000000000000000000000000815260040161031c9061097f565b60405180910390fd5b858873ffffffffffffffffffffffffffffffffffffffff167f806bc37112176c187cccea4249aea74827b609b5e40d595301442638bfd573678960405161036c91906103ef565b60405180910390a3505061037e6103cc565b505050505050565b6002600054036103c2576040517f3ee5aeb500000000000000000000000000000000000000000000000000000000815260040160405180910390fd5b6002600081905550565b6001600081905550565b6000819050919050565b6103e9816103d6565b82525050565b600060208201905061040460008301846103e0565b92915050565b600073ffffffffffffffffffffffffffffffffffffffff82169050919050565b6000819050919050565b600061044f61044a6104458461040a565b61042a565b61040a565b9050919050565b600061046182610434565b9050919050565b600061047382610456565b9050919050565b61048381610468565b82525050565b600060208201905061049e600083018461047a565b92915050565b600080fd5b600080fd5b60006104b98261040a565b9050919050565b6104c9816104ae565b81146104d457600080fd5b50565b6000813590506104e6816104c0565b92915050565b6104f5816103d6565b811461050057600080fd5b50565b600081359050610512816104ec565b92915050565b6000819050919050565b61052b81610518565b811461053657600080fd5b50565b60008135905061054881610522565b92915050565b600080fd5b600080fd5b600080fd5b60008083601f8401126105735761057261054e565b5b8235905067ffffffffffffffff8111156105905761058f610553565b5b6020830191508360018202830111156105ac576105ab610558565b5b9250929050565b60008060008060008060a087890312156105d0576105cf6104a4565b5b60006105de89828a016104d7565b96505060206105ef89828a01610503565b955050604061060089828a01610539565b945050606061061189828a01610503565b935050608087013567ffffffffffffffff811115610632576106316104a9565b5b61063e89828a0161055d565b92509250509295509295509295565b600082825260208201905092915050565b7f496e76616c696420616d6f756e74000000000000000000000000000000000000600082015250565b6000610694600e8361064d565b915061069f8261065e565b602082019050919050565b600060208201905081810360008301526106c381610687565b9050919050565b7f496e73756666696369656e742062616c616e6365000000000000000000000000600082015250565b600061070060148361064d565b915061070b826106ca565b602082019050919050565b6000602082019050818103600083015261072f816106f3565b9050919050565b61073f816104ae565b82525050565b61074e81610518565b82525050565b600082825260208201905092915050565b82818337600083830152505050565b6000601f19601f8301169050919050565b60006107918385610754565b935061079e838584610765565b6107a783610774565b840190509392505050565b600060c0820190506107c7600083018a610736565b6107d46020830189610736565b6107e160408301886103e0565b6107ee6060830187610745565b6107fb60808301866103e0565b81810360a083015261080e818486610785565b905098975050505050505050565b60008115159050919050565b6108318161081c565b811461083c57600080fd5b50565b60008151905061084e81610828565b92915050565b60006020828403121561086a576108696104a4565b5b60006108788482850161083f565b91505092915050565b7f417574686f72697a6174696f6e206661696c6564000000000000000000000000600082015250565b60006108b760148361064d565b91506108c282610881565b602082019050919050565b600060208201905081810360008301526108e6816108aa565b9050919050565b600081905092915050565b50565b60006109086000836108ed565b9150610913826108f8565b600082019050919050565b6000610929826108fb565b9150819050919050565b7f5472616e73666572206661696c65640000000000000000000000000000000000600082015250565b6000610969600f8361064d565b915061097482610933565b602082019050919050565b600060208201905081810360008301526109988161095c565b905091905056fea26469706673582212203c3679942d06d5540c6beb50fd50d06a7a24961d2872128b0d00271404496b4f64736f6c63430008180033",
  "linkReferences": {},
  "deployedLinkReferences": {}
}