{
  "_format": "hh-sol-artifact-1",
  "contractName": "AuthorizationManager",
  "sourceName": "contracts/AuthorizationManager.sol",
  "abi": [
    {
      "inputs": [
        {
          "internalType": "address",
          "name": "initialSigner",
          "type": "address"
        }
      ],
      "stateMutability": "nonpayable",
      "type": "constructor"
    },
    {
      "inputs": [],
      "name": "ECDSAInvalidSignature",
      "type": "error"
    },
    {
      "inputs": [
        {
          "internalType": "uint256",
          "name": "length",
          "type": "uint256"
        }
      ],
      "name": "ECDSAInvalidSignatureLength",
      "type": "error"
    },
    {
      "inputs": [
        {
          "internalType": "bytes32",
          "name": "s",
          "type": "bytes32"
        }
      ],
      "name": "ECDSAInvalidSignatureS",
      "type": "error"
    },
    {
      "inputs": [],
      "name": "InvalidShortString",
      "type": "error"
    },
    {
      "inputs": [
        {
          "internalType": "address",
          "name": "owner",
          "type": "address"
        }
      ],
      "name": "OwnableInvalidOwner",
      "type": "error"
    },
    {
      "inputs": [
        {
          "internalType": "address",
          "name": "account",
          "type": "address"
        }
      ],
      "name": "OwnableUnauthorizedAccount",
      "type": "error"
    },
    {
      "inputs": [
        {
          "internalType": "string",
          "name": "str",
          "type": "string"
        }
      ],
      "name": "StringTooLong",
      "type": "error"
    },
    {
      "anonymous": false,
      "inputs": [
        {
          "indexed": true,
          "internalType": "bytes32",
          "name": "nonce",
          "type": "bytes32"
        },
        {
          "indexed": true,
          "internalType": "address",
          "name": "vault",
          "type": "address"
        },
        {
          "indexed": true,
          "internalType": "address",
          "name": "recipient",
          "type": "address"
        },
        {
          "indexed": false,
          "internalType": "uint256",
          "name": "amount",
          "type": "uint256"
        }
      ],
      "name": "AuthorizationConsumed",
      "type": "event"
    },
    {
      "anonymous": false,
      "inputs": [],
      "name": "EIP712DomainChanged",
      "type": "event"
    },
    {
      "anonymous": false,
      "inputs": [
        {
          "indexed": true,
          "internalType": "address",
          "name": "previousOwner",
          "type": "address"
        },
        {
          "indexed": true,
          "internalType": "address",
          "name": "newOwner",
          "type": "address"
        }
      ],
      "name": "OwnershipTransferred",
      "type": "event"
    },
    {
      "anonymous": false,
      "inputs": [
        {
          "indexed": true,
          "internalType": "address",
          "name": "newSigner",
          "type": "address"
        }
      ],
      "name": "SignerUpdated",
      "type": "event"
    },
    {
      "inputs": [],
      "name": "eip712Domain",
      "outputs": [
        {
          "internalType": "bytes1",
          "name": "fields",
          "type": "bytes1"
        },
        {
          "internalType": "string",
          "name": "name",
          "type": "string"
        },
        {
          "internalType": "string",
          "name": "version",
          "type": "string"
        },
        {
          "internalType": "uint256",
          "name": "chainId",
          "type": "uint256"
        },
        {
          "internalType": "address",
          "name": "verifyingContract",
          "type": "address"
        },
        {
          "internalType": "bytes32",
          "name": "salt",
          "type": "bytes32"
        },
        {
          "internalType": "uint256[]",
          "name": "extensions",
          "type": "uint256[]"
        }
      ],
      "stateMutability": "view",
      "type": "function"
    },
    {
      "inputs": [],
      "name": "owner",
      "outputs": [
        {
          "internalType": "address",
          "name": "",
          "type": "address"
        }
      ],
      "stateMutability": "view",
      "type": "function"
    },
    {
      "inputs": [],
      "name": "renounceOwnership",
      "outputs": [],
      "stateMutability": "nonpayable",
      "type": "function"
    },
    {
      "inputs": [
        {
          "internalType": "address",
          "name": "newSigner",
          "type": "address"
        }
      ],
      "name": "setSigner",
      "outputs": [],
      "stateMutability": "nonpayable",
      "type": "function"
    },
    {
      "inputs": [],
      "name": "signer",
      "outputs": [
        {
          "internalType": "address",
          "name": "",
          "type": "address"
        }
      ],
      "stateMutability": "view",
      "type": "function"
    },
    {
      "inputs": [
        {
          "internalType": "address",
          "name": "newOwner",
          "type": "address"
        }
      ],
      "name": "transferOwnership",
      "outputs": [],
      "stateMutability": "nonpayable",
      "type": "function"
    },
    {
      "inputs": [
        {
          "internalType": "bytes32",
          "name": "",
          "type": "bytes32"
        }
      ],
      "name": "usedNonces",
      "outputs": [
        {
          "internalType": "bool",
          "name": "",
          "type": "bool"
        }
      ],
      "stateMutability": "view",
      "type": "function"
    },
    {
      "inputs": [
        {
          "internalType": "address",
          "name": "vault",
          "type": "address"
        },
        {
          "internalType": "address",
          "name": "recipient",
          "type": "address"
        },
        {
          "internalType": "uint256",
          "name": "amount",
          "type": "uint256"
        },
        {
          "internalType": "bytes32",
          "name": "nonce",
          "type": "bytes32"
        },
        {
          "internalType": "uint256",
          "name": "deadline",
          "type": "uint256"
        },
        {
          "internalType": "bytes",
          "name": "signature",
          "type": "bytes"
        }
      ],
      "name": "verifyAuthorization",
      "outputs": [
        {
          "internalType": "bool",
          "name": "",
          "type": "bool"
        }
      ],
      "stateMutability": "nonpayable",
      "type": "function"
    }
  ],
  "bytecode": "0x6101606040523480156200001257600080fd5b50604051620020da380380620020da8339818101604052810190620000389190620004f2565b336040518060400160405280601181526020017f5365637572655661756c7453797374656d0000000000000000000000000000008152506040518060400160405280600181526020017f3100000000000000000000000000000000000000000000000000000000000000815250620000bb6000836200029660201b90919060201c565b6101208181525050620000d96001826200029660201b90919060201c565b6101408181525050818051906020012060e08181525050808051906020012061010081815250504660a0818152505062000118620002ee60201b60201c565b608081815250503073ffffffffffffffffffffffffffffffffffffffff1660c08173ffffffffffffffffffffffffffffffffffffffff16815250505050600073ffffffffffffffffffffffffffffffffffffffff168173ffffffffffffffffffffffffffffffffffffffff1603620001ca5760006040517f1e4fbdf7000000000000000000000000000000000000000000000000000000008152600401620001c1919062000535565b60405180910390fd5b620001db816200034b60201b60201c565b50600073ffffffffffffffffffffffffffffffffffffffff168173ffffffffffffffffffffffffffffffffffffffff16036200024e576040517f08c379a00000000000000000000000000000000000000000000000000000000081526004016200024590620005b3565b60405180910390fd5b80600460006101000a81548173ffffffffffffffffffffffffffffffffffffffff021916908373ffffffffffffffffffffffffffffffffffffffff1602179055505062000b03565b6000602083511015620002bc57620002b4836200041160201b60201c565b9050620002e8565b82620002ce836200047e60201b60201c565b6000019081620002df91906200084f565b5060ff60001b90505b92915050565b60007f8b73c3c69bb8fe3d512ecc4cf759cc79239f7b179b0ffacaa9a75d522b39400f60e0516101005146306040516020016200033095949392919062000962565b60405160208183030381529060405280519060200120905090565b6000600260009054906101000a900473ffffffffffffffffffffffffffffffffffffffff16905081600260006101000a81548173ffffffffffffffffffffffffffffffffffffffff021916908373ffffffffffffffffffffffffffffffffffffffff1602179055508173ffffffffffffffffffffffffffffffffffffffff168173ffffffffffffffffffffffffffffffffffffffff167f8be0079c531659141344cd1fd0a4f28419497f9722a3daafe3b4186f6b6457e060405160405180910390a35050565b600080829050601f815111156200046157826040517f305a27a900000000000000000000000000000000000000000000000000000000815260040162000458919062000a3d565b60405180910390fd5b8051816200046f9062000a93565b60001c1760001b915050919050565b6000819050919050565b600080fd5b600073ffffffffffffffffffffffffffffffffffffffff82169050919050565b6000620004ba826200048d565b9050919050565b620004cc81620004ad565b8114620004d857600080fd5b50565b600081519050620004ec81620004c1565b92915050565b6000602082840312156200050b576200050a62000488565b5b60006200051b84828501620004db565b91505092915050565b6200052f81620004ad565b82525050565b60006020820190506200054c600083018462000524565b92915050565b600082825260208201905092915050565b7f496e76616c6964207369676e6572000000000000000000000000000000000000600082015250565b60006200059b600e8362000552565b9150620005a88262000563565b602082019050919050565b60006020820190508181036000830152620005ce816200058c565b9050919050565b600081519050919050565b7f4e487b7100000000000000000000000000000000000000000000000000000000600052604160045260246000fd5b7f4e487b7100000000000000000000000000000000000000000000000000000000600052602260045260246000fd5b600060028204905060018216806200065757607f821691505b6020821081036200066d576200066c6200060f565b5b50919050565b60008190508160005260206000209050919050565b60006020601f8301049050919050565b600082821b905092915050565b600060088302620006d77fffffffffffffffffffffffffffffffffffffffffffffffffffffffffffffffff8262000698565b620006e3868362000698565b95508019841693508086168417925050509392505050565b6000819050919050565b6000819050919050565b6000620007306200072a6200072484620006fb565b62000705565b620006fb565b9050919050565b6000819050919050565b6200074c836200070f565b620007646200075b8262000737565b848454620006a5565b825550505050565b600090565b6200077b6200076c565b6200078881848462000741565b505050565b5b81811015620007b057620007a460008262000771565b6001810190506200078e565b5050565b601f821115620007ff57620007c98162000673565b620007d48462000688565b81016020851015620007e4578190505b620007fc620007f38562000688565b8301826200078d565b50505b505050565b600082821c905092915050565b6000620008246000198460080262000804565b1980831691505092915050565b60006200083f838362000811565b9150826002028217905092915050565b6200085a82620005d5565b67ffffffffffffffff811115620008765762000875620005e0565b5b6200088282546200063e565b6200088f828285620007b4565b600060209050601f831160018114620008c75760008415620008b2578287015190505b620008be858262000831565b8655506200092e565b601f198416620008d78662000673565b60005b828110156200090157848901518255600182019150602085019450602081019050620008da565b868310156200092157848901516200091d601f89168262000811565b8355505b6001600288020188555050505b505050505050565b6000819050919050565b6200094b8162000936565b82525050565b6200095c81620006fb565b82525050565b600060a08201905062000979600083018862000940565b62000988602083018762000940565b62000997604083018662000940565b620009a6606083018562000951565b620009b5608083018462000524565b9695505050505050565b60005b83811015620009df578082015181840152602081019050620009c2565b60008484015250505050565b6000601f19601f8301169050919050565b600062000a0982620005d5565b62000a15818562000552565b935062000a27818560208601620009bf565b62000a3281620009eb565b840191505092915050565b6000602082019050818103600083015262000a598184620009fc565b905092915050565b600081519050919050565b6000819050602082019050919050565b600062000a8a825162000936565b80915050919050565b600062000aa08262000a61565b8262000aac8462000a6c565b905062000ab98162000a7c565b9250602082101562000afc5762000af77fffffffffffffffffffffffffffffffffffffffffffffffffffffffffffffffff8360200360080262000698565b831692505b5050919050565b60805160a05160c05160e05161010051610120516101405161157c62000b5e6000396000610814015260006107d901526000610bfc01526000610bdb01526000610852015260006108a8015260006108d1015261157c6000f3fe608060405234801561001057600080fd5b50600436106100885760003560e01c806384b0196e1161005b57806384b0196e146101015780638da5cb5b14610125578063f2fde38b14610143578063feb617241461015f57610088565b8063238ac9331461008d5780636c19e783146100ab578063707c2f8d146100c7578063715018a6146100f7575b600080fd5b61009561018f565b6040516100a29190610e45565b60405180910390f35b6100c560048036038101906100c09190610e96565b6101b5565b005b6100e160048036038101906100dc9190610f94565b6102b3565b6040516100ee919061105e565b60405180910390f35b6100ff6104af565b005b6101096104c3565b60405161011c9796959493929190611220565b60405180910390f35b61012d61056d565b60405161013a9190610e45565b60405180910390f35b61015d60048036038101906101589190610e96565b610597565b005b610179600480360381019061017491906112a4565b61061d565b604051610186919061105e565b60405180910390f35b600460009054906101000a900473ffffffffffffffffffffffffffffffffffffffff1681565b6101bd61063d565b600073ffffffffffffffffffffffffffffffffffffffff168173ffffffffffffffffffffffffffffffffffffffff160361022c576040517f08c379a00000000000000000000000000000000000000000000000000000000081526004016102239061131d565b60405180910390fd5b80600460006101000a81548173ffffffffffffffffffffffffffffffffffffffff021916908373ffffffffffffffffffffffffffffffffffffffff1602179055508073ffffffffffffffffffffffffffffffffffffffff167f5553331329228fbd4123164423717a4a7539f6dfa1c3279a923b98fd681a6c7360405160405180910390a250565b6000834211156102c657600090506104a4565b6003600086815260200190815260200160002060009054906101000a900460ff16156102f557600090506104a4565b60007ff458f955a5141f3ab53cd471ecdc06aac0d94557ed967b4cc13cff765616229789898989896040516020016103329695949392919061133d565b6040516020818303038152906040528051906020012090506000610355826106c4565b905060006103a78287878080601f016020809104026020016040519081016040528093929190818152602001838380828437600081840152601f19601f820116905080830192505050505050506106de565b9050600460009054906101000a900473ffffffffffffffffffffffffffffffffffffffff1673ffffffffffffffffffffffffffffffffffffffff168173ffffffffffffffffffffffffffffffffffffffff161461040a57600093505050506104a4565b6001600360008a815260200190815260200160002060006101000a81548160ff0219169083151502179055508973ffffffffffffffffffffffffffffffffffffffff168b73ffffffffffffffffffffffffffffffffffffffff16897f58d22545763a418e963a4be4f94afed3646c3c56dbff270324a6a319d6bcccf88c604051610494919061139e565b60405180910390a4600193505050505b979650505050505050565b6104b761063d565b6104c1600061070a565b565b6000606080600080600060606104d76107d0565b6104df61080b565b46306000801b600067ffffffffffffffff811115610500576104ff6113b9565b5b60405190808252806020026020018201604052801561052e5781602001602082028036833780820191505090505b507f0f00000000000000000000000000000000000000000000000000000000000000959493929190965096509650965096509650965090919293949596565b6000600260009054906101000a900473ffffffffffffffffffffffffffffffffffffffff16905090565b61059f61063d565b600073ffffffffffffffffffffffffffffffffffffffff168173ffffffffffffffffffffffffffffffffffffffff16036106115760006040517f1e4fbdf70000000000000000000000000000000000000000000000000000000081526004016106089190610e45565b60405180910390fd5b61061a8161070a565b50565b60036020528060005260406000206000915054906101000a900460ff1681565b610645610846565b73ffffffffffffffffffffffffffffffffffffffff1661066361056d565b73ffffffffffffffffffffffffffffffffffffffff16146106c257610686610846565b6040517f118cdaa70000000000000000000000000000000000000000000000000000000081526004016106b99190610e45565b60405180910390fd5b565b60006106d76106d161084e565b83610905565b9050919050565b6000806000806106ee8686610946565b9250925092506106fe82826109a2565b82935050505092915050565b6000600260009054906101000a900473ffffffffffffffffffffffffffffffffffffffff16905081600260006101000a81548173ffffffffffffffffffffffffffffffffffffffff021916908373ffffffffffffffffffffffffffffffffffffffff1602179055508173ffffffffffffffffffffffffffffffffffffffff168173ffffffffffffffffffffffffffffffffffffffff167f8be0079c531659141344cd1fd0a4f28419497f9722a3daafe3b4186f6b6457e060405160405180910390a35050565b606061080660007f0000000000000000000000000000000000000000000000000000000000000000610b0690919063ffffffff16565b905090565b606061084160017f0000000000000000000000000000000000000000000000000000000000000000610b0690919063ffffffff16565b905090565b600033905090565b60007f000000000000000000000000000000000000000000000000000000000000000073ffffffffffffffffffffffffffffffffffffffff163073ffffffffffffffffffffffffffffffffffffffff161480156108ca57507f000000000000000000000000000000000000000000000000000000000000000046145b156108f7577f00000000000000000000000000000000000000000000000000000000000000009050610902565b6108ff610bb6565b90505b90565b60006040517f190100000000000000000000000000000000000000000000000000000000000081528360028201528260228201526042812091505092915050565b6000806000604184510361098b5760008060006020870151925060408701519150606087015160001a905061097d88828585610c4c565b95509550955050505061099b565b60006002855160001b9250925092505b9250925092565b600060038111156109b6576109b56113e8565b5b8260038111156109c9576109c86113e8565b5b0315610b0257600160038111156109e3576109e26113e8565b5b8260038111156109f6576109f56113e8565b5b03610a2d576040517ff645eedf00000000000000000000000000000000000000000000000000000000815260040160405180910390fd5b60026003811115610a4157610a406113e8565b5b826003811115610a5457610a536113e8565b5b03610a99578060001c6040517ffce698f7000000000000000000000000000000000000000000000000000000008152600401610a90919061139e565b60405180910390fd5b600380811115610aac57610aab6113e8565b5b826003811115610abf57610abe6113e8565b5b03610b0157806040517fd78bce0c000000000000000000000000000000000000000000000000000000008152600401610af89190611417565b60405180910390fd5b5b5050565b606060ff60001b8314610b2357610b1c83610d40565b9050610bb0565b818054610b2f90611461565b80601f0160208091040260200160405190810160405280929190818152602001828054610b5b90611461565b8015610ba85780601f10610b7d57610100808354040283529160200191610ba8565b820191906000526020600020905b815481529060010190602001808311610b8b57829003601f168201915b505050505090505b92915050565b60007f8b73c3c69bb8fe3d512ecc4cf759cc79239f7b179b0ffacaa9a75d522b39400f7f00000000000000000000000000000000000000000000000000000000000000007f00000000000000000000000000000000000000000000000000000000000000004630604051602001610c31959493929190611492565b60405160208183030381529060405280519060200120905090565b60008060007f7fffffffffffffffffffffffffffffff5d576e7357a4501ddfe92f46681b20a08460001c1115610c8c576000600385925092509250610d36565b600060018888888860405160008152602001604052604051610cb19493929190611501565b6020604051602081039080840390855afa158015610cd3573d6000803e3d6000fd5b505050602060405103519050600073ffffffffffffffffffffffffffffffffffffffff168173ffffffffffffffffffffffffffffffffffffffff1603610d2757600060016000801b93509350935050610d36565b8060008060001b935093509350505b9450945094915050565b60606000610d4d83610db4565b90506000602067ffffffffffffffff811115610d6c57610d6b6113b9565b5b6040519080825280601f01601f191660200182016040528015610d9e5781602001600182028036833780820191505090505b5090508181528360208201528092505050919050565b60008060ff8360001c169050601f811115610dfb576040517fb3512b0c00000000000000000000000000000000000000000000000000000000815260040160405180910390fd5b80915050919050565b600073ffffffffffffffffffffffffffffffffffffffff82169050919050565b6000610e2f82610e04565b9050919050565b610e3f81610e24565b82525050565b6000602082019050610e5a6000830184610e36565b92915050565b600080fd5b600080fd5b610e7381610e24565b8114610e7e57600080fd5b50565b600081359050610e9081610e6a565b92915050565b600060208284031215610eac57610eab610e60565b5b6000610eba84828501610e81565b91505092915050565b6000819050919050565b610ed681610ec3565b8114610ee157600080fd5b50565b600081359050610ef381610ecd565b92915050565b6000819050919050565b610f0c81610ef9565b8114610f1757600080fd5b50565b600081359050610f2981610f03565b92915050565b600080fd5b600080fd5b600080fd5b60008083601f840112610f5457610f53610f2f565b5b8235905067ffffffffffffffff811115610f7157610f70610f34565b5b602083019150836001820283011115610f8d57610f8c610f39565b5b9250929050565b600080600080600080600060c0888a031215610fb357610fb2610e60565b5b6000610fc18a828b01610e81565b9750506020610fd28a828b01610e81565b9650506040610fe38a828b01610ee4565b9550506060610ff48a828b01610f1a565b94505060806110058a828b01610ee4565b93505060a088013567ffffffffffffffff81111561102657611025610e65565b5b6110328a828b01610f3e565b925092505092959891949750929550565b60008115159050919050565b61105881611043565b82525050565b6000602082019050611073600083018461104f565b92915050565b60007fff0000000000000000000000000000000000000000000000000000000000000082169050919050565b6110ae81611079565b82525050565b600081519050919050565b600082825260208201905092915050565b60005b838110156110ee5780820151818401526020810190506110d3565b60008484015250505050565b6000601f19601f8301169050919050565b6000611116826110b4565b61112081856110bf565b93506111308185602086016110d0565b611139816110fa565b840191505092915050565b61114d81610ec3565b82525050565b61115c81610ef9565b82525050565b600081519050919050565b600082825260208201905092915050565b6000819050602082019050919050565b61119781610ec3565b82525050565b60006111a9838361118e565b60208301905092915050565b6000602082019050919050565b60006111cd82611162565b6111d7818561116d565b93506111e28361117e565b8060005b838110156112135781516111fa888261119d565b9750611205836111b5565b9250506001810190506111e6565b5085935050505092915050565b600060e082019050611235600083018a6110a5565b8181036020830152611247818961110b565b9050818103604083015261125b818861110b565b905061126a6060830187611144565b6112776080830186610e36565b61128460a0830185611153565b81810360c083015261129681846111c2565b905098975050505050505050565b6000602082840312156112ba576112b9610e60565b5b60006112c884828501610f1a565b91505092915050565b7f496e76616c6964207369676e6572000000000000000000000000000000000000600082015250565b6000611307600e836110bf565b9150611312826112d1565b602082019050919050565b60006020820190508181036000830152611336816112fa565b9050919050565b600060c0820190506113526000830189611153565b61135f6020830188610e36565b61136c6040830187610e36565b6113796060830186611144565b6113866080830185611153565b61139360a0830184611144565b979650505050505050565b60006020820190506113b36000830184611144565b92915050565b7f4e487b7100000000000000000000000000000000000000000000000000000000600052604160045260246000fd5b7f4e487b7100000000000000000000000000000000000000000000000000000000600052602160045260246000fd5b600060208201905061142c6000830184611153565b92915050565b7f4e487b7100000000000000000000000000000000000000000000000000000000600052602260045260246000fd5b6000600282049050600182168061147957607f821691505b60208210810361148c5761148b611432565b5b50919050565b600060a0820190506114a76000830188611153565b6114b46020830187611153565b6114c16040830186611153565b6114ce6060830185611144565b6114db6080830184610e36565b9695505050505050565b600060ff82169050919050565b6114fb816114e5565b82525050565b60006080820190506115166000830187611153565b61152360208301866114f2565b6115306040830185611153565b61153d6060830184611153565b9594505050505056fea2646970667358221220291b6d100d6fdaaebd13f261dc635211f29d7b032dee1a46f38134c61ed2710164736f6c63430008180033",
  "linkReferences": {},
  "deployedLinkReferences": {}
}